{
  "contractName": "Library",
  "abi": [
    {
      "anonymous": false,
      "inputs": [
        {
          "indexed": false,
          "name": "title",
          "type": "string"
        },
        {
          "indexed": false,
          "name": "description",
          "type": "string"
        },
        {
          "indexed": false,
          "name": "author",
          "type": "address"
        },
        {
          "indexed": false,
          "name": "genre",
          "type": "string"
        },
        {
          "indexed": false,
          "name": "price",
          "type": "uint256"
        },
        {
          "indexed": false,
          "name": "linkHash",
          "type": "string"
        },
        {
          "indexed": false,
          "name": "imageHash",
          "type": "string"
        },
        {
          "indexed": false,
          "name": "index",
          "type": "uint256"
        }
      ],
      "name": "BookAdded",
      "type": "event"
    },
    {
      "anonymous": false,
      "inputs": [
        {
          "indexed": false,
          "name": "title",
          "type": "string"
        },
        {
          "indexed": false,
          "name": "description",
          "type": "string"
        },
        {
          "indexed": false,
          "name": "author",
          "type": "address"
        },
        {
          "indexed": false,
          "name": "genre",
          "type": "string"
        },
        {
          "indexed": false,
          "name": "price",
          "type": "uint256"
        },
        {
          "indexed": false,
          "name": "linkHash",
          "type": "string"
        },
        {
          "indexed": false,
          "name": "imageHash",
          "type": "string"
        },
        {
          "indexed": false,
          "name": "index",
          "type": "uint256"
        }
      ],
      "name": "BookRemoved",
      "type": "event"
    },
    {
      "constant": false,
      "inputs": [
        {
          "name": "_title",
          "type": "string"
        },
        {
          "name": "_description",
          "type": "string"
        },
        {
          "name": "_genre",
          "type": "string"
        },
        {
          "name": "_price",
          "type": "uint256"
        },
        {
          "name": "_linkHash",
          "type": "string"
        },
        {
          "name": "_imageHash",
          "type": "string"
        }
      ],
      "name": "addBook",
      "outputs": [],
      "payable": false,
      "stateMutability": "nonpayable",
      "type": "function"
    },
    {
      "constant": true,
      "inputs": [],
      "name": "getBookCount",
      "outputs": [
        {
          "name": "",
          "type": "uint256"
        }
      ],
      "payable": false,
      "stateMutability": "view",
      "type": "function"
    },
    {
      "constant": true,
      "inputs": [
        {
          "name": "_index",
          "type": "uint256"
        }
      ],
      "name": "getBookAt",
      "outputs": [
        {
          "name": "title",
          "type": "string"
        },
        {
          "name": "description",
          "type": "string"
        },
        {
          "name": "author",
          "type": "address"
        },
        {
          "name": "genre",
          "type": "string"
        },
        {
          "name": "price",
          "type": "uint256"
        },
        {
          "name": "linkHash",
          "type": "string"
        },
        {
          "name": "imageHash",
          "type": "string"
        }
      ],
      "payable": false,
      "stateMutability": "view",
      "type": "function"
    },
    {
      "constant": false,
      "inputs": [
        {
          "name": "_index",
          "type": "uint256"
        }
      ],
      "name": "removeBook",
      "outputs": [],
      "payable": false,
      "stateMutability": "nonpayable",
      "type": "function"
    },
    {
      "constant": false,
      "inputs": [
        {
          "name": "_index",
          "type": "uint256"
        }
      ],
      "name": "buyBook",
      "outputs": [],
      "payable": true,
      "stateMutability": "payable",
      "type": "function"
    },
    {
      "constant": true,
      "inputs": [],
      "name": "getBalance",
      "outputs": [
        {
          "name": "",
          "type": "uint256"
        }
      ],
      "payable": false,
      "stateMutability": "view",
      "type": "function"
    },
    {
      "constant": false,
      "inputs": [],
      "name": "withdrawBalance",
      "outputs": [],
      "payable": false,
      "stateMutability": "nonpayable",
      "type": "function"
    },
    {
      "constant": true,
      "inputs": [],
      "name": "getContractBalance",
      "outputs": [
        {
          "name": "",
          "type": "uint256"
        }
      ],
      "payable": false,
      "stateMutability": "view",
      "type": "function"
    }
  ],
  "bytecode": "0x608060405234801561001057600080fd5b50611c39806100206000396000f30060806040526004361061008e576000357c0100000000000000000000000000000000000000000000000000000000900463ffffffff16806312065fe0146100935780635fd8c710146100be5780636ee26566146100d55780636f9fb98a146100f55780639c36d90714610120578063aa735d06146103b0578063bec0d7991461053b578063d73e0c8914610568575b600080fd5b34801561009f57600080fd5b506100a8610593565b6040518082815260200191505060405180910390f35b3480156100ca57600080fd5b506100d36105da565b005b6100f3600480360381019080803590602001909291905050506106ad565b005b34801561010157600080fd5b5061010a61086f565b6040518082815260200191505060405180910390f35b34801561012c57600080fd5b5061014b60048036038101908080359060200190929190505050610879565b6040518080602001806020018873ffffffffffffffffffffffffffffffffffffffff1673ffffffffffffffffffffffffffffffffffffffff16815260200180602001878152602001806020018060200186810386528d818151815260200191508051906020019080838360005b838110156101d35780820151818401526020810190506101b8565b50505050905090810190601f1680156102005780820380516001836020036101000a031916815260200191505b5086810385528c818151815260200191508051906020019080838360005b8381101561023957808201518184015260208101905061021e565b50505050905090810190601f1680156102665780820380516001836020036101000a031916815260200191505b5086810384528a818151815260200191508051906020019080838360005b8381101561029f578082015181840152602081019050610284565b50505050905090810190601f1680156102cc5780820380516001836020036101000a031916815260200191505b50868103835288818151815260200191508051906020019080838360005b838110156103055780820151818401526020810190506102ea565b50505050905090810190601f1680156103325780820380516001836020036101000a031916815260200191505b50868103825287818151815260200191508051906020019080838360005b8381101561036b578082015181840152602081019050610350565b50505050905090810190601f1680156103985780820380516001836020036101000a031916815260200191505b509c5050505050505050505050505060405180910390f35b3480156103bc57600080fd5b50610539600480360381019080803590602001908201803590602001908080601f0160208091040260200160405190810160405280939291908181526020018383808284378201915050505050509192919290803590602001908201803590602001908080601f0160208091040260200160405190810160405280939291908181526020018383808284378201915050505050509192919290803590602001908201803590602001908080601f016020809104026020016040519081016040528093929190818152602001838380828437820191505050505050919291929080359060200190929190803590602001908201803590602001908080601f0160208091040260200160405190810160405280939291908181526020018383808284378201915050505050509192919290803590602001908201803590602001908080601f0160208091040260200160405190810160405280939291908181526020018383808284378201915050505050509192919290505050610d1c565b005b34801561054757600080fd5b5061056660048036038101908080359060200190929190505050611159565b005b34801561057457600080fd5b5061057d611a4c565b6040518082815260200191505060405180910390f35b6000600260003373ffffffffffffffffffffffffffffffffffffffff1673ffffffffffffffffffffffffffffffffffffffff16815260200190815260200160002054905090565b6000600260003373ffffffffffffffffffffffffffffffffffffffff1673ffffffffffffffffffffffffffffffffffffffff1681526020019081526020016000205490506000600260003373ffffffffffffffffffffffffffffffffffffffff1673ffffffffffffffffffffffffffffffffffffffff168152602001908152602001600020819055503373ffffffffffffffffffffffffffffffffffffffff166108fc829081150290604051600060405180830381858888f193505050501580156106a9573d6000803e3d6000fd5b5050565b600081346000828154811015156106c057fe5b9060005260206000209060070201600401541415156106de57600080fd5b3373ffffffffffffffffffffffffffffffffffffffff1660008281548110151561070457fe5b906000526020600020906007020160020160009054906101000a900473ffffffffffffffffffffffffffffffffffffffff1673ffffffffffffffffffffffffffffffffffffffff161415151561075957600080fd5b60008381548110151561076857fe5b906000526020600020906007020160020160009054906101000a900473ffffffffffffffffffffffffffffffffffffffff1691506107c06064600534028115156107ae57fe5b04600354611a5690919063ffffffff16565b6003819055506108276064605f34028115156107d857fe5b04600260008573ffffffffffffffffffffffffffffffffffffffff1673ffffffffffffffffffffffffffffffffffffffff16815260200190815260200160002054611a5690919063ffffffff16565b600260008473ffffffffffffffffffffffffffffffffffffffff1673ffffffffffffffffffffffffffffffffffffffff16815260200190815260200160002081905550505050565b6000600354905090565b60608060006060600060608061088d611a8d565b886000610898611a4c565b1180156108a6575060015481105b151561091a576040517f08c379a00000000000000000000000000000000000000000000000000000000081526004018080602001828103825260158152602001807f426f6f6b206973206e6f7420617661696c61626c65000000000000000000000081525060200191505060405180910390fd5b60008a81548110151561092957fe5b906000526020600020906007020160e06040519081016040529081600082018054600181600116156101000203166002900480601f0160208091040260200160405190810160405280929190818152602001828054600181600116156101000203166002900480156109dc5780601f106109b1576101008083540402835291602001916109dc565b820191906000526020600020905b8154815290600101906020018083116109bf57829003601f168201915b50505050508152602001600182018054600181600116156101000203166002900480601f016020809104026020016040519081016040528092919081815260200182805460018160011615610100020316600290048015610a7e5780601f10610a5357610100808354040283529160200191610a7e565b820191906000526020600020905b815481529060010190602001808311610a6157829003601f168201915b505050505081526020016002820160009054906101000a900473ffffffffffffffffffffffffffffffffffffffff1673ffffffffffffffffffffffffffffffffffffffff1673ffffffffffffffffffffffffffffffffffffffff168152602001600382018054600181600116156101000203166002900480601f016020809104026020016040519081016040528092919081815260200182805460018160011615610100020316600290048015610b765780601f10610b4b57610100808354040283529160200191610b76565b820191906000526020600020905b815481529060010190602001808311610b5957829003601f168201915b5050505050815260200160048201548152602001600582018054600181600116156101000203166002900480601f016020809104026020016040519081016040528092919081815260200182805460018160011615610100020316600290048015610c225780601f10610bf757610100808354040283529160200191610c22565b820191906000526020600020905b815481529060010190602001808311610c0557829003601f168201915b50505050508152602001600682018054600181600116156101000203166002900480601f016020809104026020016040519081016040528092919081815260200182805460018160011615610100020316600290048015610cc45780601f10610c9957610100808354040283529160200191610cc4565b820191906000526020600020905b815481529060010190602001808311610ca757829003601f168201915b5050505050815250509150816000015182602001518360400151846060015185608001518660a001518760c0015186965085955083935081915080905098509850985098509850985098505050919395979092949650565b610d24611a8d565b60e0604051908101604052808881526020018781526020013373ffffffffffffffffffffffffffffffffffffffff168152602001868152602001858152602001848152602001838152509050600081908060018154018082558091505090600182039060005260206000209060070201600090919290919091506000820151816000019080519060200190610dba929190611ae1565b506020820151816001019080519060200190610dd7929190611ae1565b5060408201518160020160006101000a81548173ffffffffffffffffffffffffffffffffffffffff021916908373ffffffffffffffffffffffffffffffffffffffff1602179055506060820151816003019080519060200190610e3b929190611ae1565b506080820151816004015560a0820151816005019080519060200190610e62929190611ae1565b5060c0820151816006019080519060200190610e7f929190611ae1565b505050507fec34c9edbf9ba820de2f71208983c9275de638a0bc44f2c1cc53737002e25de1816000015182602001518360400151846060015185608001518660a001518760c001516001546040518080602001806020018973ffffffffffffffffffffffffffffffffffffffff1673ffffffffffffffffffffffffffffffffffffffff16815260200180602001888152602001806020018060200187815260200186810386528e818151815260200191508051906020019080838360005b83811015610f58578082015181840152602081019050610f3d565b50505050905090810190601f168015610f855780820380516001836020036101000a031916815260200191505b5086810385528d818151815260200191508051906020019080838360005b83811015610fbe578082015181840152602081019050610fa3565b50505050905090810190601f168015610feb5780820380516001836020036101000a031916815260200191505b5086810384528b818151815260200191508051906020019080838360005b83811015611024578082015181840152602081019050611009565b50505050905090810190601f1680156110515780820380516001836020036101000a031916815260200191505b50868103835289818151815260200191508051906020019080838360005b8381101561108a57808201518184015260208101905061106f565b50505050905090810190601f1680156110b75780820380516001836020036101000a031916815260200191505b50868103825288818151815260200191508051906020019080838360005b838110156110f05780820151818401526020810190506110d5565b50505050905090810190601f16801561111d5780820380516001836020036101000a031916815260200191505b509d505050505050505050505050505060405180910390a161114a60018054611a5690919063ffffffff16565b60018190555050505050505050565b6000611163611a8d565b823373ffffffffffffffffffffffffffffffffffffffff1660008281548110151561118a57fe5b906000526020600020906007020160020160009054906101000a900473ffffffffffffffffffffffffffffffffffffffff1673ffffffffffffffffffffffffffffffffffffffff16141515611247576040517f08c379a000000000000000000000000000000000000000000000000000000000815260040180806020018281038252601a8152602001807f4e6f742074686520617574686f72206f662074686520626f6f6b00000000000081525060200191505060405180910390fd5b6001805403925060008481548110151561125d57fe5b906000526020600020906007020160e06040519081016040529081600082018054600181600116156101000203166002900480601f0160208091040260200160405190810160405280929190818152602001828054600181600116156101000203166002900480156113105780601f106112e557610100808354040283529160200191611310565b820191906000526020600020905b8154815290600101906020018083116112f357829003601f168201915b50505050508152602001600182018054600181600116156101000203166002900480601f0160208091040260200160405190810160405280929190818152602001828054600181600116156101000203166002900480156113b25780601f10611387576101008083540402835291602001916113b2565b820191906000526020600020905b81548152906001019060200180831161139557829003601f168201915b505050505081526020016002820160009054906101000a900473ffffffffffffffffffffffffffffffffffffffff1673ffffffffffffffffffffffffffffffffffffffff1673ffffffffffffffffffffffffffffffffffffffff168152602001600382018054600181600116156101000203166002900480601f0160208091040260200160405190810160405280929190818152602001828054600181600116156101000203166002900480156114aa5780601f1061147f576101008083540402835291602001916114aa565b820191906000526020600020905b81548152906001019060200180831161148d57829003601f168201915b5050505050815260200160048201548152602001600582018054600181600116156101000203166002900480601f0160208091040260200160405190810160405280929190818152602001828054600181600116156101000203166002900480156115565780601f1061152b57610100808354040283529160200191611556565b820191906000526020600020905b81548152906001019060200180831161153957829003601f168201915b50505050508152602001600682018054600181600116156101000203166002900480601f0160208091040260200160405190810160405280929190818152602001828054600181600116156101000203166002900480156115f85780601f106115cd576101008083540402835291602001916115f8565b820191906000526020600020905b8154815290600101906020018083116115db57829003601f168201915b505050505081525050915060008381548110151561161257fe5b906000526020600020906007020160008581548110151561162f57fe5b906000526020600020906007020160008201816000019080546001816001161561010002031660029004611664929190611b61565b506001820181600101908054600181600116156101000203166002900461168c929190611b61565b506002820160009054906101000a900473ffffffffffffffffffffffffffffffffffffffff168160020160006101000a81548173ffffffffffffffffffffffffffffffffffffffff021916908373ffffffffffffffffffffffffffffffffffffffff1602179055506003820181600301908054600181600116156101000203166002900461171b929190611b61565b50600482015481600401556005820181600501908054600181600116156101000203166002900461174d929190611b61565b5060068201816006019080546001816001161561010002031660029004611775929190611b61565b5090505061178e60018054611a7490919063ffffffff16565b6001819055507f5c205f48ba3bd9c1f047facc6786c8a832eccfd34849440b9a1ba15f2608807d826000015183602001518460400151856060015186608001518760a001518860c001516001546040518080602001806020018973ffffffffffffffffffffffffffffffffffffffff1673ffffffffffffffffffffffffffffffffffffffff16815260200180602001888152602001806020018060200187815260200186810386528e818151815260200191508051906020019080838360005b8381101561186957808201518184015260208101905061184e565b50505050905090810190601f1680156118965780820380516001836020036101000a031916815260200191505b5086810385528d818151815260200191508051906020019080838360005b838110156118cf5780820151818401526020810190506118b4565b50505050905090810190601f1680156118fc5780820380516001836020036101000a031916815260200191505b5086810384528b818151815260200191508051906020019080838360005b8381101561193557808201518184015260208101905061191a565b50505050905090810190601f1680156119625780820380516001836020036101000a031916815260200191505b50868103835289818151815260200191508051906020019080838360005b8381101561199b578082015181840152602081019050611980565b50505050905090810190601f1680156119c85780820380516001836020036101000a031916815260200191505b50868103825288818151815260200191508051906020019080838360005b83811015611a015780820151818401526020810190506119e6565b50505050905090810190601f168015611a2e5780820380516001836020036101000a031916815260200191505b509d505050505050505050505050505060405180910390a150505050565b6000600154905090565b6000808284019050838110151515611a6a57fe5b8091505092915050565b6000828211151515611a8257fe5b818303905092915050565b60e0604051908101604052806060815260200160608152602001600073ffffffffffffffffffffffffffffffffffffffff168152602001606081526020016000815260200160608152602001606081525090565b828054600181600116156101000203166002900490600052602060002090601f016020900481019282601f10611b2257805160ff1916838001178555611b50565b82800160010185558215611b50579182015b82811115611b4f578251825591602001919060010190611b34565b5b509050611b5d9190611be8565b5090565b828054600181600116156101000203166002900490600052602060002090601f016020900481019282601f10611b9a5780548555611bd7565b82800160010185558215611bd757600052602060002091601f016020900482015b82811115611bd6578254825591600101919060010190611bbb565b5b509050611be49190611be8565b5090565b611c0a91905b80821115611c06576000816000905550600101611bee565b5090565b905600a165627a7a72305820811e7ec0b6c425931dc09d293c9cafb59e55201f4481a7117f8bd65eb73f0ef20029",
  "source": "pragma solidity ^0.4.24;\nimport './safemath.sol';\n\ncontract Library {\n  using SafeMath for uint;\n  \n  struct Book {\n    string title;\n    string description;\n    address author;\n    string genre;\n    uint price;\n    string linkHash;\n    string imageHash;\n  }\n\n  Book[] private books;\n  uint private lastAvailableIndex;\n  mapping (address => uint) private balances;\n  uint private contractBalance;\n\n  event BookAdded(\n    string title,\n    string description,\n    address author,\n    string genre,\n    uint price,\n    string linkHash,\n    string imageHash,\n    uint index\n  );\n\n   event BookRemoved(\n    string title,\n    string description,\n    address author,\n    string genre,\n    uint price,\n    string linkHash,\n    string imageHash,\n    uint index\n  ); \n\n  modifier isBookAvailable(uint _index) {\n    require(getBookCount() > 0 && _index < lastAvailableIndex, 'Book is not available');\n    _;\n  }\n  \n  modifier isBookAuthor(uint _index) {\n    require(books[_index].author == msg.sender, 'Not the author of the book');\n    _;\n  }\n\n  modifier canBuy(uint _index) {\n    require(books[_index].price == msg.value);\n    require(books[_index].author != msg.sender);\n    _;\n  }\n\n  function addBook(string _title, string _description, string _genre, uint _price, string _linkHash, string _imageHash) public {\n    Book memory newBook = Book(\n      _title,\n      _description,\n      msg.sender,\n      _genre,\n      _price, \n      _linkHash,\n      _imageHash\n    );\n\n    books.push(newBook);\n    emit BookAdded(\n      newBook.title,\n      newBook.description,\n      newBook.author,\n      newBook.genre,\n      newBook.price, \n      newBook.linkHash,\n      newBook.imageHash,\n      lastAvailableIndex\n    );\n    lastAvailableIndex = lastAvailableIndex.add(1);\n  }\n\n  function getBookCount() public view returns (uint) {\n    return lastAvailableIndex;\n  }\n  \n  function getBookAt(uint _index) public view isBookAvailable(_index) returns (string title, string description, address author, string genre, uint price, string linkHash, string imageHash) {\n    Book memory retrievedBook = books[_index];\n    return (\n      retrievedBook.title,\n      retrievedBook.description,\n      retrievedBook.author,\n      retrievedBook.genre,\n      retrievedBook.price,\n      retrievedBook.linkHash,\n      retrievedBook.imageHash\n      );\n  }\n\n  function removeBook(uint _index) public isBookAuthor(_index) {\n    uint lastIndex = lastAvailableIndex - 1;\n    Book memory book = books[_index];\n\n    books[_index] = books[lastIndex];\n    lastAvailableIndex = lastAvailableIndex.sub(1);\n\n    emit BookRemoved(\n      book.title,\n      book.description,\n      book.author,\n      book.genre,\n      book.price, \n      book.linkHash,\n      book.imageHash,\n      lastAvailableIndex\n    );\n  }\n\n  function buyBook(uint _index) public canBuy(_index) payable {\n    address author = books[_index].author;\n    contractBalance = contractBalance.add((msg.value * 5)/100);\n    balances[author] = balances[author].add((msg.value * 95)/100);\n  }\n\n  function getBalance() public view returns (uint) {\n    return balances[msg.sender];\n  }\n  \n  function withdrawBalance() public {\n    uint balance = balances[msg.sender];\n    balances[msg.sender] = 0;\n    msg.sender.transfer(balance);\n  }\n\n  function getContractBalance () public view returns (uint) {\n    return contractBalance;\n  }\n}",
  "sourcePath": "C:\\Users\\DELL\\Blockchain\\project\\DArchive\\contracts\\Library.sol",
  "compiler": {
    "name": "solc",
    "version": "0.4.24+commit.e67f0147.Emscripten.clang"
  },
  "schemaVersion": "2.0.1",
  "updatedAt": "2018-09-25T06:56:10.098Z"
}