{
  "contractName": "Library",
  "abi": [
    {
      "constant": false,
      "inputs": [
        {
          "name": "_title",
          "type": "string"
        },
        {
          "name": "_description",
          "type": "string"
        },
        {
          "name": "_genre",
          "type": "string"
        },
        {
          "name": "_linkHash",
          "type": "string"
        },
        {
          "name": "_imageHash",
          "type": "string"
        }
      ],
      "name": "addBook",
      "outputs": [],
      "payable": false,
      "stateMutability": "nonpayable",
      "type": "function"
    },
    {
      "constant": true,
      "inputs": [],
      "name": "getBookCount",
      "outputs": [
        {
          "name": "",
          "type": "uint256"
        }
      ],
      "payable": false,
      "stateMutability": "view",
      "type": "function"
    },
    {
      "constant": true,
      "inputs": [
        {
          "name": "_index",
          "type": "uint256"
        }
      ],
      "name": "getBookAt",
      "outputs": [
        {
          "name": "title",
          "type": "string"
        },
        {
          "name": "description",
          "type": "string"
        },
        {
          "name": "author",
          "type": "address"
        },
        {
          "name": "genre",
          "type": "string"
        },
        {
          "name": "linkHash",
          "type": "string"
        },
        {
          "name": "imageHash",
          "type": "string"
        }
      ],
      "payable": false,
      "stateMutability": "view",
      "type": "function"
    },
    {
      "constant": false,
      "inputs": [
        {
          "name": "_index",
          "type": "uint256"
        },
        {
          "name": "_author",
          "type": "address"
        }
      ],
      "name": "removeBook",
      "outputs": [],
      "payable": false,
      "stateMutability": "nonpayable",
      "type": "function"
    }
  ],
  "bytecode": "0x608060405234801561001057600080fd5b50610e41806100206000396000f300608060405260043610610062576000357c0100000000000000000000000000000000000000000000000000000000900463ffffffff16806341371972146100675780639c36d907146101e8578063a66eac4714610471578063d73e0c89146104be575b600080fd5b34801561007357600080fd5b506101e6600480360381019080803590602001908201803590602001908080601f0160208091040260200160405190810160405280939291908181526020018383808284378201915050505050509192919290803590602001908201803590602001908080601f0160208091040260200160405190810160405280939291908181526020018383808284378201915050505050509192919290803590602001908201803590602001908080601f0160208091040260200160405190810160405280939291908181526020018383808284378201915050505050509192919290803590602001908201803590602001908080601f0160208091040260200160405190810160405280939291908181526020018383808284378201915050505050509192919290803590602001908201803590602001908080601f01602080910402602001604051908101604052809392919081815260200183838082843782019150505050505091929192905050506104e9565b005b3480156101f457600080fd5b5061021360048036038101908080359060200190929190505050610663565b6040518080602001806020018773ffffffffffffffffffffffffffffffffffffffff1673ffffffffffffffffffffffffffffffffffffffff16815260200180602001806020018060200186810386528c818151815260200191508051906020019080838360005b8381101561029557808201518184015260208101905061027a565b50505050905090810190601f1680156102c25780820380516001836020036101000a031916815260200191505b5086810385528b818151815260200191508051906020019080838360005b838110156102fb5780820151818401526020810190506102e0565b50505050905090810190601f1680156103285780820380516001836020036101000a031916815260200191505b50868103845289818151815260200191508051906020019080838360005b83811015610361578082015181840152602081019050610346565b50505050905090810190601f16801561038e5780820380516001836020036101000a031916815260200191505b50868103835288818151815260200191508051906020019080838360005b838110156103c75780820151818401526020810190506103ac565b50505050905090810190601f1680156103f45780820380516001836020036101000a031916815260200191505b50868103825287818151815260200191508051906020019080838360005b8381101561042d578082015181840152602081019050610412565b50505050905090810190601f16801561045a5780820380516001836020036101000a031916815260200191505b509b50505050505050505050505060405180910390f35b34801561047d57600080fd5b506104bc60048036038101908080359060200190929190803573ffffffffffffffffffffffffffffffffffffffff169060200190929190505050610a88565b005b3480156104ca57600080fd5b506104d3610c59565b6040518082815260200191505060405180910390f35b6104f1610c9c565b60c0604051908101604052808781526020018681526020013373ffffffffffffffffffffffffffffffffffffffff168152602001858152602001848152602001838152509050600081908060018154018082558091505090600182039060005260206000209060060201600090919290919091506000820151816000019080519060200190610581929190610ce9565b50602082015181600101908051906020019061059e929190610ce9565b5060408201518160020160006101000a81548173ffffffffffffffffffffffffffffffffffffffff021916908373ffffffffffffffffffffffffffffffffffffffff1602179055506060820151816003019080519060200190610602929190610ce9565b50608082015181600401908051906020019061061f929190610ce9565b5060a082015181600501908051906020019061063c929190610ce9565b5050505061065560018054610c6590919063ffffffff16565b600181905550505050505050565b60608060006060806060610675610c9c565b876000610680610c59565b11801561068e575060015481105b151561069957600080fd5b6000898154811015156106a857fe5b906000526020600020906006020160c06040519081016040529081600082018054600181600116156101000203166002900480601f01602080910402602001604051908101604052809291908181526020018280546001816001161561010002031660029004801561075b5780601f106107305761010080835404028352916020019161075b565b820191906000526020600020905b81548152906001019060200180831161073e57829003601f168201915b50505050508152602001600182018054600181600116156101000203166002900480601f0160208091040260200160405190810160405280929190818152602001828054600181600116156101000203166002900480156107fd5780601f106107d2576101008083540402835291602001916107fd565b820191906000526020600020905b8154815290600101906020018083116107e057829003601f168201915b505050505081526020016002820160009054906101000a900473ffffffffffffffffffffffffffffffffffffffff1673ffffffffffffffffffffffffffffffffffffffff1673ffffffffffffffffffffffffffffffffffffffff168152602001600382018054600181600116156101000203166002900480601f0160208091040260200160405190810160405280929190818152602001828054600181600116156101000203166002900480156108f55780601f106108ca576101008083540402835291602001916108f5565b820191906000526020600020905b8154815290600101906020018083116108d857829003601f168201915b50505050508152602001600482018054600181600116156101000203166002900480601f0160208091040260200160405190810160405280929190818152602001828054600181600116156101000203166002900480156109975780601f1061096c57610100808354040283529160200191610997565b820191906000526020600020905b81548152906001019060200180831161097a57829003601f168201915b50505050508152602001600582018054600181600116156101000203166002900480601f016020809104026020016040519081016040528092919081815260200182805460018160011615610100020316600290048015610a395780601f10610a0e57610100808354040283529160200191610a39565b820191906000526020600020905b815481529060010190602001808311610a1c57829003601f168201915b5050505050815250509150816000015182602001518360400151846060015185608001518660a00151859550849450829250819150809050975097509750975097509750505091939550919395565b6000813373ffffffffffffffffffffffffffffffffffffffff168173ffffffffffffffffffffffffffffffffffffffff16141515610ac557600080fd5b60018054039150600082815481101515610adb57fe5b9060005260206000209060060201600085815481101515610af857fe5b906000526020600020906006020160008201816000019080546001816001161561010002031660029004610b2d929190610d69565b5060018201816001019080546001816001161561010002031660029004610b55929190610d69565b506002820160009054906101000a900473ffffffffffffffffffffffffffffffffffffffff168160020160006101000a81548173ffffffffffffffffffffffffffffffffffffffff021916908373ffffffffffffffffffffffffffffffffffffffff16021790555060038201816003019080546001816001161561010002031660029004610be4929190610d69565b5060048201816004019080546001816001161561010002031660029004610c0c929190610d69565b5060058201816005019080546001816001161561010002031660029004610c34929190610d69565b50905050610c4d60018054610c8390919063ffffffff16565b60018190555050505050565b60008080549050905090565b6000808284019050838110151515610c7957fe5b8091505092915050565b6000828211151515610c9157fe5b818303905092915050565b60c0604051908101604052806060815260200160608152602001600073ffffffffffffffffffffffffffffffffffffffff1681526020016060815260200160608152602001606081525090565b828054600181600116156101000203166002900490600052602060002090601f016020900481019282601f10610d2a57805160ff1916838001178555610d58565b82800160010185558215610d58579182015b82811115610d57578251825591602001919060010190610d3c565b5b509050610d659190610df0565b5090565b828054600181600116156101000203166002900490600052602060002090601f016020900481019282601f10610da25780548555610ddf565b82800160010185558215610ddf57600052602060002091601f016020900482015b82811115610dde578254825591600101919060010190610dc3565b5b509050610dec9190610df0565b5090565b610e1291905b80821115610e0e576000816000905550600101610df6565b5090565b905600a165627a7a723058202c37ee0dac0e89ff183c2de81177c09885a4dbd9d6e34bc718ac02702e388ce40029",
  "source": "pragma solidity ^0.4.24;\nimport './safemath.sol';\n\ncontract Library {\n  using SafeMath for uint;\n  struct Book {\n    string title;\n    string description;\n    address author;\n    string genre;\n    string linkHash;\n    string imageHash;\n  }\n\n  Book[] private books;\n  uint lastAvailableIndex;\n\n  modifier isBookAvailable(uint _index) {\n    require(getBookCount() > 0 && _index < lastAvailableIndex);\n    _;\n  }\n  \n  modifier isBookAuthor(address _author) {\n    require(_author == msg.sender);\n    _;\n  }\n\n  function addBook(string _title, string _description, string _genre, string _linkHash, string _imageHash) public {\n    Book memory newBook = Book(\n      _title,\n      _description,\n      msg.sender,\n      _genre,\n      _linkHash,\n      _imageHash\n    );\n\n    books.push(newBook);\n    lastAvailableIndex = lastAvailableIndex.add(1);\n  }\n\n  function getBookCount() public view returns (uint) {\n    return books.length;\n  }\n  \n  function getBookAt(uint _index) public view isBookAvailable(_index) returns (string title, string description, address author, string genre, string linkHash, string imageHash) {\n    Book memory retrievedBook = books[_index];\n    return (\n      retrievedBook.title,\n      retrievedBook.description,\n      retrievedBook.author,\n      retrievedBook.genre,\n      retrievedBook.linkHash,\n      retrievedBook.imageHash\n      );\n  }\n\n  function removeBook(uint _index, address _author) public isBookAuthor(_author) {\n    uint lastIndex = lastAvailableIndex - 1;\n    books[_index] = books[lastIndex];\n    lastAvailableIndex = lastAvailableIndex.sub(1);\n  }\n}",
  "sourcePath": "C:\\Users\\DELL\\Blockchain\\project\\DArchive\\contracts\\Library.sol",
  "compiler": {
    "name": "solc",
    "version": "0.4.24+commit.e67f0147.Emscripten.clang"
  },
  "schemaVersion": "2.0.1",
  "updatedAt": "2018-09-21T06:19:03.068Z"
}