{
  "contractName": "Library",
  "abi": [
    {
      "anonymous": false,
      "inputs": [
        {
          "indexed": false,
          "name": "title",
          "type": "string"
        },
        {
          "indexed": false,
          "name": "description",
          "type": "string"
        },
        {
          "indexed": false,
          "name": "author",
          "type": "address"
        },
        {
          "indexed": false,
          "name": "genre",
          "type": "string"
        },
        {
          "indexed": false,
          "name": "price",
          "type": "uint256"
        },
        {
          "indexed": false,
          "name": "linkHash",
          "type": "string"
        },
        {
          "indexed": false,
          "name": "imageHash",
          "type": "string"
        },
        {
          "indexed": false,
          "name": "index",
          "type": "uint256"
        }
      ],
      "name": "BookAdded",
      "type": "event"
    },
    {
      "anonymous": false,
      "inputs": [
        {
          "indexed": false,
          "name": "title",
          "type": "string"
        },
        {
          "indexed": false,
          "name": "description",
          "type": "string"
        },
        {
          "indexed": false,
          "name": "author",
          "type": "address"
        },
        {
          "indexed": false,
          "name": "genre",
          "type": "string"
        },
        {
          "indexed": false,
          "name": "price",
          "type": "uint256"
        },
        {
          "indexed": false,
          "name": "linkHash",
          "type": "string"
        },
        {
          "indexed": false,
          "name": "imageHash",
          "type": "string"
        },
        {
          "indexed": false,
          "name": "index",
          "type": "uint256"
        }
      ],
      "name": "BookRemoved",
      "type": "event"
    },
    {
      "constant": false,
      "inputs": [
        {
          "name": "_title",
          "type": "string"
        },
        {
          "name": "_description",
          "type": "string"
        },
        {
          "name": "_genre",
          "type": "string"
        },
        {
          "name": "_price",
          "type": "uint256"
        },
        {
          "name": "_linkHash",
          "type": "string"
        },
        {
          "name": "_imageHash",
          "type": "string"
        }
      ],
      "name": "addBook",
      "outputs": [],
      "payable": false,
      "stateMutability": "nonpayable",
      "type": "function"
    },
    {
      "constant": true,
      "inputs": [],
      "name": "getBookCount",
      "outputs": [
        {
          "name": "",
          "type": "uint256"
        }
      ],
      "payable": false,
      "stateMutability": "view",
      "type": "function"
    },
    {
      "constant": true,
      "inputs": [
        {
          "name": "_index",
          "type": "uint256"
        }
      ],
      "name": "getBookAt",
      "outputs": [
        {
          "name": "title",
          "type": "string"
        },
        {
          "name": "description",
          "type": "string"
        },
        {
          "name": "author",
          "type": "address"
        },
        {
          "name": "genre",
          "type": "string"
        },
        {
          "name": "price",
          "type": "uint256"
        },
        {
          "name": "linkHash",
          "type": "string"
        },
        {
          "name": "imageHash",
          "type": "string"
        }
      ],
      "payable": false,
      "stateMutability": "view",
      "type": "function"
    },
    {
      "constant": false,
      "inputs": [
        {
          "name": "_index",
          "type": "uint256"
        }
      ],
      "name": "removeBook",
      "outputs": [],
      "payable": false,
      "stateMutability": "nonpayable",
      "type": "function"
    },
    {
      "constant": false,
      "inputs": [
        {
          "name": "_index",
          "type": "uint256"
        }
      ],
      "name": "buyBook",
      "outputs": [],
      "payable": true,
      "stateMutability": "payable",
      "type": "function"
    },
    {
      "constant": true,
      "inputs": [],
      "name": "getContractBalance",
      "outputs": [
        {
          "name": "",
          "type": "uint256"
        }
      ],
      "payable": false,
      "stateMutability": "view",
      "type": "function"
    }
  ],
  "bytecode": "0x608060405234801561001057600080fd5b50611a7b806100206000396000f300608060405260043610610078576000357c0100000000000000000000000000000000000000000000000000000000900463ffffffff1680636ee265661461007d5780636f9fb98a1461009d5780639c36d907146100c8578063aa735d0614610358578063bec0d799146104e3578063d73e0c8914610510575b600080fd5b61009b6004803603810190808035906020019092919050505061053b565b005b3480156100a957600080fd5b506100b26106af565b6040518082815260200191505060405180910390f35b3480156100d457600080fd5b506100f3600480360381019080803590602001909291905050506106b9565b6040518080602001806020018873ffffffffffffffffffffffffffffffffffffffff1673ffffffffffffffffffffffffffffffffffffffff16815260200180602001878152602001806020018060200186810386528d818151815260200191508051906020019080838360005b8381101561017b578082015181840152602081019050610160565b50505050905090810190601f1680156101a85780820380516001836020036101000a031916815260200191505b5086810385528c818151815260200191508051906020019080838360005b838110156101e15780820151818401526020810190506101c6565b50505050905090810190601f16801561020e5780820380516001836020036101000a031916815260200191505b5086810384528a818151815260200191508051906020019080838360005b8381101561024757808201518184015260208101905061022c565b50505050905090810190601f1680156102745780820380516001836020036101000a031916815260200191505b50868103835288818151815260200191508051906020019080838360005b838110156102ad578082015181840152602081019050610292565b50505050905090810190601f1680156102da5780820380516001836020036101000a031916815260200191505b50868103825287818151815260200191508051906020019080838360005b838110156103135780820151818401526020810190506102f8565b50505050905090810190601f1680156103405780820380516001836020036101000a031916815260200191505b509c5050505050505050505050505060405180910390f35b34801561036457600080fd5b506104e1600480360381019080803590602001908201803590602001908080601f0160208091040260200160405190810160405280939291908181526020018383808284378201915050505050509192919290803590602001908201803590602001908080601f0160208091040260200160405190810160405280939291908181526020018383808284378201915050505050509192919290803590602001908201803590602001908080601f016020809104026020016040519081016040528093929190818152602001838380828437820191505050505050919291929080359060200190929190803590602001908201803590602001908080601f0160208091040260200160405190810160405280939291908181526020018383808284378201915050505050509192919290803590602001908201803590602001908080601f0160208091040260200160405190810160405280939291908181526020018383808284378201915050505050509192919290505050610b5c565b005b3480156104ef57600080fd5b5061050e60048036038101908080359060200190929190505050610f99565b005b34801561051c57600080fd5b5061052561188c565b6040518082815260200191505060405180910390f35b6000813460008281548110151561054e57fe5b90600052602060002090600702016004015414151561056c57600080fd5b3373ffffffffffffffffffffffffffffffffffffffff1660008281548110151561059257fe5b906000526020600020906007020160020160009054906101000a900473ffffffffffffffffffffffffffffffffffffffff1673ffffffffffffffffffffffffffffffffffffffff16141515156105e757600080fd5b6000838154811015156105f657fe5b906000526020600020906007020160020160009054906101000a900473ffffffffffffffffffffffffffffffffffffffff16915061064e60646005340281151561063c57fe5b0460025461189890919063ffffffff16565b6002819055508173ffffffffffffffffffffffffffffffffffffffff166108fc6064605f340281151561067d57fe5b049081150290604051600060405180830381858888f193505050501580156106a9573d6000803e3d6000fd5b50505050565b6000600254905090565b6060806000606060006060806106cd6118cf565b8860006106d861188c565b1180156106e6575060015481105b151561075a576040517f08c379a00000000000000000000000000000000000000000000000000000000081526004018080602001828103825260158152602001807f426f6f6b206973206e6f7420617661696c61626c65000000000000000000000081525060200191505060405180910390fd5b60008a81548110151561076957fe5b906000526020600020906007020160e06040519081016040529081600082018054600181600116156101000203166002900480601f01602080910402602001604051908101604052809291908181526020018280546001816001161561010002031660029004801561081c5780601f106107f15761010080835404028352916020019161081c565b820191906000526020600020905b8154815290600101906020018083116107ff57829003601f168201915b50505050508152602001600182018054600181600116156101000203166002900480601f0160208091040260200160405190810160405280929190818152602001828054600181600116156101000203166002900480156108be5780601f10610893576101008083540402835291602001916108be565b820191906000526020600020905b8154815290600101906020018083116108a157829003601f168201915b505050505081526020016002820160009054906101000a900473ffffffffffffffffffffffffffffffffffffffff1673ffffffffffffffffffffffffffffffffffffffff1673ffffffffffffffffffffffffffffffffffffffff168152602001600382018054600181600116156101000203166002900480601f0160208091040260200160405190810160405280929190818152602001828054600181600116156101000203166002900480156109b65780601f1061098b576101008083540402835291602001916109b6565b820191906000526020600020905b81548152906001019060200180831161099957829003601f168201915b5050505050815260200160048201548152602001600582018054600181600116156101000203166002900480601f016020809104026020016040519081016040528092919081815260200182805460018160011615610100020316600290048015610a625780601f10610a3757610100808354040283529160200191610a62565b820191906000526020600020905b815481529060010190602001808311610a4557829003601f168201915b50505050508152602001600682018054600181600116156101000203166002900480601f016020809104026020016040519081016040528092919081815260200182805460018160011615610100020316600290048015610b045780601f10610ad957610100808354040283529160200191610b04565b820191906000526020600020905b815481529060010190602001808311610ae757829003601f168201915b5050505050815250509150816000015182602001518360400151846060015185608001518660a001518760c0015186965085955083935081915080905098509850985098509850985098505050919395979092949650565b610b646118cf565b60e0604051908101604052808881526020018781526020013373ffffffffffffffffffffffffffffffffffffffff168152602001868152602001858152602001848152602001838152509050600081908060018154018082558091505090600182039060005260206000209060070201600090919290919091506000820151816000019080519060200190610bfa929190611923565b506020820151816001019080519060200190610c17929190611923565b5060408201518160020160006101000a81548173ffffffffffffffffffffffffffffffffffffffff021916908373ffffffffffffffffffffffffffffffffffffffff1602179055506060820151816003019080519060200190610c7b929190611923565b506080820151816004015560a0820151816005019080519060200190610ca2929190611923565b5060c0820151816006019080519060200190610cbf929190611923565b50505050610cd86001805461189890919063ffffffff16565b6001819055507fec34c9edbf9ba820de2f71208983c9275de638a0bc44f2c1cc53737002e25de1816000015182602001518360400151846060015185608001518660a001518760c001516001546040518080602001806020018973ffffffffffffffffffffffffffffffffffffffff1673ffffffffffffffffffffffffffffffffffffffff16815260200180602001888152602001806020018060200187815260200186810386528e818151815260200191508051906020019080838360005b83811015610db3578082015181840152602081019050610d98565b50505050905090810190601f168015610de05780820380516001836020036101000a031916815260200191505b5086810385528d818151815260200191508051906020019080838360005b83811015610e19578082015181840152602081019050610dfe565b50505050905090810190601f168015610e465780820380516001836020036101000a031916815260200191505b5086810384528b818151815260200191508051906020019080838360005b83811015610e7f578082015181840152602081019050610e64565b50505050905090810190601f168015610eac5780820380516001836020036101000a031916815260200191505b50868103835289818151815260200191508051906020019080838360005b83811015610ee5578082015181840152602081019050610eca565b50505050905090810190601f168015610f125780820380516001836020036101000a031916815260200191505b50868103825288818151815260200191508051906020019080838360005b83811015610f4b578082015181840152602081019050610f30565b50505050905090810190601f168015610f785780820380516001836020036101000a031916815260200191505b509d505050505050505050505050505060405180910390a150505050505050565b6000610fa36118cf565b823373ffffffffffffffffffffffffffffffffffffffff16600082815481101515610fca57fe5b906000526020600020906007020160020160009054906101000a900473ffffffffffffffffffffffffffffffffffffffff1673ffffffffffffffffffffffffffffffffffffffff16141515611087576040517f08c379a000000000000000000000000000000000000000000000000000000000815260040180806020018281038252601a8152602001807f4e6f742074686520617574686f72206f662074686520626f6f6b00000000000081525060200191505060405180910390fd5b6001805403925060008481548110151561109d57fe5b906000526020600020906007020160e06040519081016040529081600082018054600181600116156101000203166002900480601f0160208091040260200160405190810160405280929190818152602001828054600181600116156101000203166002900480156111505780601f1061112557610100808354040283529160200191611150565b820191906000526020600020905b81548152906001019060200180831161113357829003601f168201915b50505050508152602001600182018054600181600116156101000203166002900480601f0160208091040260200160405190810160405280929190818152602001828054600181600116156101000203166002900480156111f25780601f106111c7576101008083540402835291602001916111f2565b820191906000526020600020905b8154815290600101906020018083116111d557829003601f168201915b505050505081526020016002820160009054906101000a900473ffffffffffffffffffffffffffffffffffffffff1673ffffffffffffffffffffffffffffffffffffffff1673ffffffffffffffffffffffffffffffffffffffff168152602001600382018054600181600116156101000203166002900480601f0160208091040260200160405190810160405280929190818152602001828054600181600116156101000203166002900480156112ea5780601f106112bf576101008083540402835291602001916112ea565b820191906000526020600020905b8154815290600101906020018083116112cd57829003601f168201915b5050505050815260200160048201548152602001600582018054600181600116156101000203166002900480601f0160208091040260200160405190810160405280929190818152602001828054600181600116156101000203166002900480156113965780601f1061136b57610100808354040283529160200191611396565b820191906000526020600020905b81548152906001019060200180831161137957829003601f168201915b50505050508152602001600682018054600181600116156101000203166002900480601f0160208091040260200160405190810160405280929190818152602001828054600181600116156101000203166002900480156114385780601f1061140d57610100808354040283529160200191611438565b820191906000526020600020905b81548152906001019060200180831161141b57829003601f168201915b505050505081525050915060008381548110151561145257fe5b906000526020600020906007020160008581548110151561146f57fe5b9060005260206000209060070201600082018160000190805460018160011615610100020316600290046114a49291906119a3565b50600182018160010190805460018160011615610100020316600290046114cc9291906119a3565b506002820160009054906101000a900473ffffffffffffffffffffffffffffffffffffffff168160020160006101000a81548173ffffffffffffffffffffffffffffffffffffffff021916908373ffffffffffffffffffffffffffffffffffffffff1602179055506003820181600301908054600181600116156101000203166002900461155b9291906119a3565b50600482015481600401556005820181600501908054600181600116156101000203166002900461158d9291906119a3565b50600682018160060190805460018160011615610100020316600290046115b59291906119a3565b509050506115ce600180546118b690919063ffffffff16565b6001819055507f5c205f48ba3bd9c1f047facc6786c8a832eccfd34849440b9a1ba15f2608807d826000015183602001518460400151856060015186608001518760a001518860c001516001546040518080602001806020018973ffffffffffffffffffffffffffffffffffffffff1673ffffffffffffffffffffffffffffffffffffffff16815260200180602001888152602001806020018060200187815260200186810386528e818151815260200191508051906020019080838360005b838110156116a957808201518184015260208101905061168e565b50505050905090810190601f1680156116d65780820380516001836020036101000a031916815260200191505b5086810385528d818151815260200191508051906020019080838360005b8381101561170f5780820151818401526020810190506116f4565b50505050905090810190601f16801561173c5780820380516001836020036101000a031916815260200191505b5086810384528b818151815260200191508051906020019080838360005b8381101561177557808201518184015260208101905061175a565b50505050905090810190601f1680156117a25780820380516001836020036101000a031916815260200191505b50868103835289818151815260200191508051906020019080838360005b838110156117db5780820151818401526020810190506117c0565b50505050905090810190601f1680156118085780820380516001836020036101000a031916815260200191505b50868103825288818151815260200191508051906020019080838360005b83811015611841578082015181840152602081019050611826565b50505050905090810190601f16801561186e5780820380516001836020036101000a031916815260200191505b509d505050505050505050505050505060405180910390a150505050565b60008080549050905090565b60008082840190508381101515156118ac57fe5b8091505092915050565b60008282111515156118c457fe5b818303905092915050565b60e0604051908101604052806060815260200160608152602001600073ffffffffffffffffffffffffffffffffffffffff168152602001606081526020016000815260200160608152602001606081525090565b828054600181600116156101000203166002900490600052602060002090601f016020900481019282601f1061196457805160ff1916838001178555611992565b82800160010185558215611992579182015b82811115611991578251825591602001919060010190611976565b5b50905061199f9190611a2a565b5090565b828054600181600116156101000203166002900490600052602060002090601f016020900481019282601f106119dc5780548555611a19565b82800160010185558215611a1957600052602060002091601f016020900482015b82811115611a185782548255916001019190600101906119fd565b5b509050611a269190611a2a565b5090565b611a4c91905b80821115611a48576000816000905550600101611a30565b5090565b905600a165627a7a723058202c0de997af91803c42b5f06a4ccb5e0d77d534bd4ca4c142cea84e577192c54f0029",
  "source": "pragma solidity ^0.4.24;\nimport './safemath.sol';\n\ncontract Library {\n  using SafeMath for uint;\n  \n  struct Book {\n    string title;\n    string description;\n    address author;\n    string genre;\n    uint price;\n    string linkHash;\n    string imageHash;\n  }\n\n  Book[] private books;\n  uint lastAvailableIndex;\n  uint private contractBalance;\n\n  event BookAdded(\n    string title,\n    string description,\n    address author,\n    string genre,\n    uint price,\n    string linkHash,\n    string imageHash,\n    uint index\n  );\n\n   event BookRemoved(\n    string title,\n    string description,\n    address author,\n    string genre,\n    uint price,\n    string linkHash,\n    string imageHash,\n    uint index\n  );\n\n  modifier isBookAvailable(uint _index) {\n    require(getBookCount() > 0 && _index < lastAvailableIndex, 'Book is not available');\n    _;\n  }\n  \n  modifier isBookAuthor(uint _index) {\n    require(books[_index].author == msg.sender, 'Not the author of the book');\n    _;\n  }\n\n  modifier canBuy(uint _index) {\n    require(books[_index].price == msg.value);\n    require(books[_index].author != msg.sender);\n    _;\n  }\n\n  function addBook(string _title, string _description, string _genre, uint _price, string _linkHash, string _imageHash) public {\n    Book memory newBook = Book(\n      _title,\n      _description,\n      msg.sender,\n      _genre,\n      _price, \n      _linkHash,\n      _imageHash\n    );\n\n    books.push(newBook);\n    lastAvailableIndex = lastAvailableIndex.add(1);\n\n    emit BookAdded(\n      newBook.title,\n      newBook.description,\n      newBook.author,\n      newBook.genre,\n      newBook.price, \n      newBook.linkHash,\n      newBook.imageHash,\n      lastAvailableIndex\n    );\n  }\n\n  function getBookCount() public view returns (uint) {\n    return books.length;\n  }\n  \n  function getBookAt(uint _index) public view isBookAvailable(_index) returns (string title, string description, address author, string genre, uint price, string linkHash, string imageHash) {\n    Book memory retrievedBook = books[_index];\n    return (\n      retrievedBook.title,\n      retrievedBook.description,\n      retrievedBook.author,\n      retrievedBook.genre,\n      retrievedBook.price,\n      retrievedBook.linkHash,\n      retrievedBook.imageHash\n      );\n  }\n\n  function removeBook(uint _index) public isBookAuthor(_index) {\n    uint lastIndex = lastAvailableIndex - 1;\n    Book memory book = books[_index];\n\n    books[_index] = books[lastIndex];\n    lastAvailableIndex = lastAvailableIndex.sub(1);\n\n    emit BookRemoved(\n      book.title,\n      book.description,\n      book.author,\n      book.genre,\n      book.price, \n      book.linkHash,\n      book.imageHash,\n      lastAvailableIndex\n    );\n  }\n\n  function buyBook(uint _index) public canBuy(_index) payable {\n    address author = books[_index].author;\n    contractBalance = contractBalance.add((msg.value * 5)/100);\n    author.transfer((msg.value * 95)/100);\n  }\n\n  function getContractBalance () public view returns (uint) {\n    return contractBalance;\n  }\n}",
  "sourcePath": "C:\\Users\\DELL\\Blockchain\\project\\DArchive\\contracts\\Library.sol",
  "compiler": {
    "name": "solc",
    "version": "0.4.24+commit.e67f0147.Emscripten.clang"
  },
  "schemaVersion": "2.0.1",
  "updatedAt": "2018-09-23T16:07:09.445Z"
}