{
  "contractName": "Library",
  "abi": [
    {
      "anonymous": false,
      "inputs": [
        {
          "indexed": false,
          "name": "title",
          "type": "string"
        },
        {
          "indexed": false,
          "name": "description",
          "type": "string"
        },
        {
          "indexed": false,
          "name": "author",
          "type": "address"
        },
        {
          "indexed": false,
          "name": "genre",
          "type": "string"
        },
        {
          "indexed": false,
          "name": "price",
          "type": "uint256"
        },
        {
          "indexed": false,
          "name": "linkHash",
          "type": "string"
        },
        {
          "indexed": false,
          "name": "imageHash",
          "type": "string"
        },
        {
          "indexed": false,
          "name": "index",
          "type": "uint256"
        }
      ],
      "name": "BookAdded",
      "type": "event"
    },
    {
      "anonymous": false,
      "inputs": [
        {
          "indexed": false,
          "name": "title",
          "type": "string"
        },
        {
          "indexed": false,
          "name": "description",
          "type": "string"
        },
        {
          "indexed": false,
          "name": "author",
          "type": "address"
        },
        {
          "indexed": false,
          "name": "genre",
          "type": "string"
        },
        {
          "indexed": false,
          "name": "price",
          "type": "uint256"
        },
        {
          "indexed": false,
          "name": "linkHash",
          "type": "string"
        },
        {
          "indexed": false,
          "name": "imageHash",
          "type": "string"
        },
        {
          "indexed": false,
          "name": "index",
          "type": "uint256"
        }
      ],
      "name": "BookRemoved",
      "type": "event"
    },
    {
      "constant": false,
      "inputs": [
        {
          "name": "_title",
          "type": "string"
        },
        {
          "name": "_description",
          "type": "string"
        },
        {
          "name": "_genre",
          "type": "string"
        },
        {
          "name": "_price",
          "type": "uint256"
        },
        {
          "name": "_linkHash",
          "type": "string"
        },
        {
          "name": "_imageHash",
          "type": "string"
        }
      ],
      "name": "addBook",
      "outputs": [],
      "payable": false,
      "stateMutability": "nonpayable",
      "type": "function"
    },
    {
      "constant": true,
      "inputs": [],
      "name": "getBookCount",
      "outputs": [
        {
          "name": "",
          "type": "uint256"
        }
      ],
      "payable": false,
      "stateMutability": "view",
      "type": "function"
    },
    {
      "constant": true,
      "inputs": [
        {
          "name": "_index",
          "type": "uint256"
        }
      ],
      "name": "getBookAt",
      "outputs": [
        {
          "name": "title",
          "type": "string"
        },
        {
          "name": "description",
          "type": "string"
        },
        {
          "name": "author",
          "type": "address"
        },
        {
          "name": "genre",
          "type": "string"
        },
        {
          "name": "price",
          "type": "uint256"
        },
        {
          "name": "linkHash",
          "type": "string"
        },
        {
          "name": "imageHash",
          "type": "string"
        }
      ],
      "payable": false,
      "stateMutability": "view",
      "type": "function"
    },
    {
      "constant": false,
      "inputs": [
        {
          "name": "_index",
          "type": "uint256"
        }
      ],
      "name": "removeBook",
      "outputs": [],
      "payable": false,
      "stateMutability": "nonpayable",
      "type": "function"
    },
    {
      "constant": false,
      "inputs": [
        {
          "name": "_index",
          "type": "uint256"
        }
      ],
      "name": "buyBook",
      "outputs": [],
      "payable": true,
      "stateMutability": "payable",
      "type": "function"
    },
    {
      "constant": true,
      "inputs": [],
      "name": "getBalance",
      "outputs": [
        {
          "name": "",
          "type": "uint256"
        }
      ],
      "payable": false,
      "stateMutability": "view",
      "type": "function"
    },
    {
      "constant": false,
      "inputs": [],
      "name": "withdrawBalance",
      "outputs": [],
      "payable": false,
      "stateMutability": "nonpayable",
      "type": "function"
    },
    {
      "constant": true,
      "inputs": [],
      "name": "getContractBalance",
      "outputs": [
        {
          "name": "",
          "type": "uint256"
        }
      ],
      "payable": false,
      "stateMutability": "view",
      "type": "function"
    },
    {
      "constant": true,
      "inputs": [
        {
          "name": "_index",
          "type": "uint256"
        }
      ],
      "name": "getIsBookAuthor",
      "outputs": [
        {
          "name": "",
          "type": "bool"
        }
      ],
      "payable": false,
      "stateMutability": "view",
      "type": "function"
    }
  ],
  "bytecode": "0x608060405234801561001057600080fd5b50611d83806100206000396000f300608060405260043610610099576000357c0100000000000000000000000000000000000000000000000000000000900463ffffffff16806312065fe01461009e5780635fd8c710146100c95780636ee26566146100e05780636f9fb98a146101005780639c36d9071461012b578063a03eb389146103bb578063aa735d0614610400578063bec0d7991461058b578063d73e0c89146105b8575b600080fd5b3480156100aa57600080fd5b506100b36105e3565b6040518082815260200191505060405180910390f35b3480156100d557600080fd5b506100de61062a565b005b6100fe600480360381019080803590602001909291905050506106fd565b005b34801561010c57600080fd5b506101156108bf565b6040518082815260200191505060405180910390f35b34801561013757600080fd5b50610156600480360381019080803590602001909291905050506108c9565b6040518080602001806020018873ffffffffffffffffffffffffffffffffffffffff1673ffffffffffffffffffffffffffffffffffffffff16815260200180602001878152602001806020018060200186810386528d818151815260200191508051906020019080838360005b838110156101de5780820151818401526020810190506101c3565b50505050905090810190601f16801561020b5780820380516001836020036101000a031916815260200191505b5086810385528c818151815260200191508051906020019080838360005b83811015610244578082015181840152602081019050610229565b50505050905090810190601f1680156102715780820380516001836020036101000a031916815260200191505b5086810384528a818151815260200191508051906020019080838360005b838110156102aa57808201518184015260208101905061028f565b50505050905090810190601f1680156102d75780820380516001836020036101000a031916815260200191505b50868103835288818151815260200191508051906020019080838360005b838110156103105780820151818401526020810190506102f5565b50505050905090810190601f16801561033d5780820380516001836020036101000a031916815260200191505b50868103825287818151815260200191508051906020019080838360005b8381101561037657808201518184015260208101905061035b565b50505050905090810190601f1680156103a35780820380516001836020036101000a031916815260200191505b509c5050505050505050505050505060405180910390f35b3480156103c757600080fd5b506103e660048036038101908080359060200190929190505050610d6c565b604051808215151515815260200191505060405180910390f35b34801561040c57600080fd5b50610589600480360381019080803590602001908201803590602001908080601f0160208091040260200160405190810160405280939291908181526020018383808284378201915050505050509192919290803590602001908201803590602001908080601f0160208091040260200160405190810160405280939291908181526020018383808284378201915050505050509192919290803590602001908201803590602001908080601f016020809104026020016040519081016040528093929190818152602001838380828437820191505050505050919291929080359060200190929190803590602001908201803590602001908080601f0160208091040260200160405190810160405280939291908181526020018383808284378201915050505050509192919290803590602001908201803590602001908080601f0160208091040260200160405190810160405280939291908181526020018383808284378201915050505050509192919290505050610e5c565b005b34801561059757600080fd5b506105b6600480360381019080803590602001909291905050506112a3565b005b3480156105c457600080fd5b506105cd611b96565b6040518082815260200191505060405180910390f35b6000600260003373ffffffffffffffffffffffffffffffffffffffff1673ffffffffffffffffffffffffffffffffffffffff16815260200190815260200160002054905090565b6000600260003373ffffffffffffffffffffffffffffffffffffffff1673ffffffffffffffffffffffffffffffffffffffff1681526020019081526020016000205490506000600260003373ffffffffffffffffffffffffffffffffffffffff1673ffffffffffffffffffffffffffffffffffffffff168152602001908152602001600020819055503373ffffffffffffffffffffffffffffffffffffffff166108fc829081150290604051600060405180830381858888f193505050501580156106f9573d6000803e3d6000fd5b5050565b6000813460008281548110151561071057fe5b90600052602060002090600702016004015414151561072e57600080fd5b3373ffffffffffffffffffffffffffffffffffffffff1660008281548110151561075457fe5b906000526020600020906007020160020160009054906101000a900473ffffffffffffffffffffffffffffffffffffffff1673ffffffffffffffffffffffffffffffffffffffff16141515156107a957600080fd5b6000838154811015156107b857fe5b906000526020600020906007020160020160009054906101000a900473ffffffffffffffffffffffffffffffffffffffff1691506108106064600534028115156107fe57fe5b04600354611ba090919063ffffffff16565b6003819055506108776064605f340281151561082857fe5b04600260008573ffffffffffffffffffffffffffffffffffffffff1673ffffffffffffffffffffffffffffffffffffffff16815260200190815260200160002054611ba090919063ffffffff16565b600260008473ffffffffffffffffffffffffffffffffffffffff1673ffffffffffffffffffffffffffffffffffffffff16815260200190815260200160002081905550505050565b6000600354905090565b6060806000606060006060806108dd611bd7565b8860006108e8611b96565b1180156108f6575060015481105b151561096a576040517f08c379a00000000000000000000000000000000000000000000000000000000081526004018080602001828103825260158152602001807f426f6f6b206973206e6f7420617661696c61626c65000000000000000000000081525060200191505060405180910390fd5b60008a81548110151561097957fe5b906000526020600020906007020160e06040519081016040529081600082018054600181600116156101000203166002900480601f016020809104026020016040519081016040528092919081815260200182805460018160011615610100020316600290048015610a2c5780601f10610a0157610100808354040283529160200191610a2c565b820191906000526020600020905b815481529060010190602001808311610a0f57829003601f168201915b50505050508152602001600182018054600181600116156101000203166002900480601f016020809104026020016040519081016040528092919081815260200182805460018160011615610100020316600290048015610ace5780601f10610aa357610100808354040283529160200191610ace565b820191906000526020600020905b815481529060010190602001808311610ab157829003601f168201915b505050505081526020016002820160009054906101000a900473ffffffffffffffffffffffffffffffffffffffff1673ffffffffffffffffffffffffffffffffffffffff1673ffffffffffffffffffffffffffffffffffffffff168152602001600382018054600181600116156101000203166002900480601f016020809104026020016040519081016040528092919081815260200182805460018160011615610100020316600290048015610bc65780601f10610b9b57610100808354040283529160200191610bc6565b820191906000526020600020905b815481529060010190602001808311610ba957829003601f168201915b5050505050815260200160048201548152602001600582018054600181600116156101000203166002900480601f016020809104026020016040519081016040528092919081815260200182805460018160011615610100020316600290048015610c725780601f10610c4757610100808354040283529160200191610c72565b820191906000526020600020905b815481529060010190602001808311610c5557829003601f168201915b50505050508152602001600682018054600181600116156101000203166002900480601f016020809104026020016040519081016040528092919081815260200182805460018160011615610100020316600290048015610d145780601f10610ce957610100808354040283529160200191610d14565b820191906000526020600020905b815481529060010190602001808311610cf757829003601f168201915b5050505050815250509150816000015182602001518360400151846060015185608001518660a001518760c0015186965085955083935081915080905098509850985098509850985098505050919395979092949650565b6000813373ffffffffffffffffffffffffffffffffffffffff16600082815481101515610d9557fe5b906000526020600020906007020160020160009054906101000a900473ffffffffffffffffffffffffffffffffffffffff1673ffffffffffffffffffffffffffffffffffffffff16141515610e52576040517f08c379a000000000000000000000000000000000000000000000000000000000815260040180806020018281038252601a8152602001807f4e6f742074686520617574686f72206f662074686520626f6f6b00000000000081525060200191505060405180910390fd5b6001915050919050565b610e64611bd7565b60e0604051908101604052808881526020018781526020013373ffffffffffffffffffffffffffffffffffffffff168152602001868152602001670de0b6b3a764000086028152602001848152602001838152509050600081908060018154018082558091505090600182039060005260206000209060070201600090919290919091506000820151816000019080519060200190610f04929190611c2b565b506020820151816001019080519060200190610f21929190611c2b565b5060408201518160020160006101000a81548173ffffffffffffffffffffffffffffffffffffffff021916908373ffffffffffffffffffffffffffffffffffffffff1602179055506060820151816003019080519060200190610f85929190611c2b565b506080820151816004015560a0820151816005019080519060200190610fac929190611c2b565b5060c0820151816006019080519060200190610fc9929190611c2b565b505050507fec34c9edbf9ba820de2f71208983c9275de638a0bc44f2c1cc53737002e25de1816000015182602001518360400151846060015185608001518660a001518760c001516001546040518080602001806020018973ffffffffffffffffffffffffffffffffffffffff1673ffffffffffffffffffffffffffffffffffffffff16815260200180602001888152602001806020018060200187815260200186810386528e818151815260200191508051906020019080838360005b838110156110a2578082015181840152602081019050611087565b50505050905090810190601f1680156110cf5780820380516001836020036101000a031916815260200191505b5086810385528d818151815260200191508051906020019080838360005b838110156111085780820151818401526020810190506110ed565b50505050905090810190601f1680156111355780820380516001836020036101000a031916815260200191505b5086810384528b818151815260200191508051906020019080838360005b8381101561116e578082015181840152602081019050611153565b50505050905090810190601f16801561119b5780820380516001836020036101000a031916815260200191505b50868103835289818151815260200191508051906020019080838360005b838110156111d45780820151818401526020810190506111b9565b50505050905090810190601f1680156112015780820380516001836020036101000a031916815260200191505b50868103825288818151815260200191508051906020019080838360005b8381101561123a57808201518184015260208101905061121f565b50505050905090810190601f1680156112675780820380516001836020036101000a031916815260200191505b509d505050505050505050505050505060405180910390a161129460018054611ba090919063ffffffff16565b60018190555050505050505050565b60006112ad611bd7565b823373ffffffffffffffffffffffffffffffffffffffff166000828154811015156112d457fe5b906000526020600020906007020160020160009054906101000a900473ffffffffffffffffffffffffffffffffffffffff1673ffffffffffffffffffffffffffffffffffffffff16141515611391576040517f08c379a000000000000000000000000000000000000000000000000000000000815260040180806020018281038252601a8152602001807f4e6f742074686520617574686f72206f662074686520626f6f6b00000000000081525060200191505060405180910390fd5b600180540392506000848154811015156113a757fe5b906000526020600020906007020160e06040519081016040529081600082018054600181600116156101000203166002900480601f01602080910402602001604051908101604052809291908181526020018280546001816001161561010002031660029004801561145a5780601f1061142f5761010080835404028352916020019161145a565b820191906000526020600020905b81548152906001019060200180831161143d57829003601f168201915b50505050508152602001600182018054600181600116156101000203166002900480601f0160208091040260200160405190810160405280929190818152602001828054600181600116156101000203166002900480156114fc5780601f106114d1576101008083540402835291602001916114fc565b820191906000526020600020905b8154815290600101906020018083116114df57829003601f168201915b505050505081526020016002820160009054906101000a900473ffffffffffffffffffffffffffffffffffffffff1673ffffffffffffffffffffffffffffffffffffffff1673ffffffffffffffffffffffffffffffffffffffff168152602001600382018054600181600116156101000203166002900480601f0160208091040260200160405190810160405280929190818152602001828054600181600116156101000203166002900480156115f45780601f106115c9576101008083540402835291602001916115f4565b820191906000526020600020905b8154815290600101906020018083116115d757829003601f168201915b5050505050815260200160048201548152602001600582018054600181600116156101000203166002900480601f0160208091040260200160405190810160405280929190818152602001828054600181600116156101000203166002900480156116a05780601f10611675576101008083540402835291602001916116a0565b820191906000526020600020905b81548152906001019060200180831161168357829003601f168201915b50505050508152602001600682018054600181600116156101000203166002900480601f0160208091040260200160405190810160405280929190818152602001828054600181600116156101000203166002900480156117425780601f1061171757610100808354040283529160200191611742565b820191906000526020600020905b81548152906001019060200180831161172557829003601f168201915b505050505081525050915060008381548110151561175c57fe5b906000526020600020906007020160008581548110151561177957fe5b9060005260206000209060070201600082018160000190805460018160011615610100020316600290046117ae929190611cab565b50600182018160010190805460018160011615610100020316600290046117d6929190611cab565b506002820160009054906101000a900473ffffffffffffffffffffffffffffffffffffffff168160020160006101000a81548173ffffffffffffffffffffffffffffffffffffffff021916908373ffffffffffffffffffffffffffffffffffffffff16021790555060038201816003019080546001816001161561010002031660029004611865929190611cab565b506004820154816004015560058201816005019080546001816001161561010002031660029004611897929190611cab565b50600682018160060190805460018160011615610100020316600290046118bf929190611cab565b509050506118d860018054611bbe90919063ffffffff16565b6001819055507f5c205f48ba3bd9c1f047facc6786c8a832eccfd34849440b9a1ba15f2608807d826000015183602001518460400151856060015186608001518760a001518860c001516001546040518080602001806020018973ffffffffffffffffffffffffffffffffffffffff1673ffffffffffffffffffffffffffffffffffffffff16815260200180602001888152602001806020018060200187815260200186810386528e818151815260200191508051906020019080838360005b838110156119b3578082015181840152602081019050611998565b50505050905090810190601f1680156119e05780820380516001836020036101000a031916815260200191505b5086810385528d818151815260200191508051906020019080838360005b83811015611a195780820151818401526020810190506119fe565b50505050905090810190601f168015611a465780820380516001836020036101000a031916815260200191505b5086810384528b818151815260200191508051906020019080838360005b83811015611a7f578082015181840152602081019050611a64565b50505050905090810190601f168015611aac5780820380516001836020036101000a031916815260200191505b50868103835289818151815260200191508051906020019080838360005b83811015611ae5578082015181840152602081019050611aca565b50505050905090810190601f168015611b125780820380516001836020036101000a031916815260200191505b50868103825288818151815260200191508051906020019080838360005b83811015611b4b578082015181840152602081019050611b30565b50505050905090810190601f168015611b785780820380516001836020036101000a031916815260200191505b509d505050505050505050505050505060405180910390a150505050565b6000600154905090565b6000808284019050838110151515611bb457fe5b8091505092915050565b6000828211151515611bcc57fe5b818303905092915050565b60e0604051908101604052806060815260200160608152602001600073ffffffffffffffffffffffffffffffffffffffff168152602001606081526020016000815260200160608152602001606081525090565b828054600181600116156101000203166002900490600052602060002090601f016020900481019282601f10611c6c57805160ff1916838001178555611c9a565b82800160010185558215611c9a579182015b82811115611c99578251825591602001919060010190611c7e565b5b509050611ca79190611d32565b5090565b828054600181600116156101000203166002900490600052602060002090601f016020900481019282601f10611ce45780548555611d21565b82800160010185558215611d2157600052602060002091601f016020900482015b82811115611d20578254825591600101919060010190611d05565b5b509050611d2e9190611d32565b5090565b611d5491905b80821115611d50576000816000905550600101611d38565b5090565b905600a165627a7a723058201cebc4f37bc1a13f9a94d2bee50e9d252eb29107ed2fa3bd89d539b84c7b0be90029",
  "source": "pragma solidity ^0.4.24;\nimport './safemath.sol';\n\ncontract Library {\n  using SafeMath for uint;\n  \n  struct Book {\n    string title;\n    string description;\n    address author;\n    string genre;\n    uint price;\n    string linkHash;\n    string imageHash;\n  }\n\n  Book[] private books;\n  uint private lastAvailableIndex;\n  mapping (address => uint) private balances;\n  uint private contractBalance;\n\n  event BookAdded(\n    string title,\n    string description,\n    address author,\n    string genre,\n    uint price,\n    string linkHash,\n    string imageHash,\n    uint index\n  );\n\n   event BookRemoved(\n    string title,\n    string description,\n    address author,\n    string genre,\n    uint price,\n    string linkHash,\n    string imageHash,\n    uint index\n  ); \n\n  modifier isBookAvailable(uint _index) {\n    require(getBookCount() > 0 && _index < lastAvailableIndex, 'Book is not available');\n    _;\n  }\n  \n  modifier isBookAuthor(uint _index) {\n    require(books[_index].author == msg.sender, 'Not the author of the book');\n    _;\n  }\n\n  modifier canBuy(uint _index) {\n    require(books[_index].price == msg.value);\n    require(books[_index].author != msg.sender);\n    _;\n  }\n\n  function addBook(string _title, string _description, string _genre, uint _price, string _linkHash, string _imageHash) public {\n    Book memory newBook = Book(\n      _title,\n      _description,\n      msg.sender,\n      _genre,\n      _price * 10 ** 18, \n      _linkHash,\n      _imageHash\n    );\n\n    books.push(newBook);\n    emit BookAdded(\n      newBook.title,\n      newBook.description,\n      newBook.author,\n      newBook.genre,\n      newBook.price, \n      newBook.linkHash,\n      newBook.imageHash,\n      lastAvailableIndex\n    );\n    lastAvailableIndex = lastAvailableIndex.add(1);\n  }\n\n  function getBookCount() public view returns (uint) {\n    return lastAvailableIndex;\n  }\n  \n  function getBookAt(uint _index) public view isBookAvailable(_index) returns (string title, string description, address author, string genre, uint price, string linkHash, string imageHash) {\n    Book memory retrievedBook = books[_index];\n    return (\n      retrievedBook.title,\n      retrievedBook.description,\n      retrievedBook.author,\n      retrievedBook.genre,\n      retrievedBook.price,\n      retrievedBook.linkHash,\n      retrievedBook.imageHash\n      );\n  }\n\n  function removeBook(uint _index) public isBookAuthor(_index) {\n    uint lastIndex = lastAvailableIndex - 1;\n    Book memory book = books[_index];\n\n    books[_index] = books[lastIndex];\n    lastAvailableIndex = lastAvailableIndex.sub(1);\n\n    emit BookRemoved(\n      book.title,\n      book.description,\n      book.author,\n      book.genre,\n      book.price, \n      book.linkHash,\n      book.imageHash,\n      lastAvailableIndex\n    );\n  }\n\n  function buyBook(uint _index) public canBuy(_index) payable {\n    address author = books[_index].author;\n    contractBalance = contractBalance.add((msg.value * 5)/100);\n    balances[author] = balances[author].add((msg.value * 95)/100);\n  }\n\n  function getBalance() public view returns (uint) {\n    return balances[msg.sender];\n  }\n  \n  function withdrawBalance() public {\n    uint balance = balances[msg.sender];\n    balances[msg.sender] = 0;\n    msg.sender.transfer(balance);\n  }\n\n  function getContractBalance() public view returns (uint) {\n    return contractBalance;\n  }\n\n  function getIsBookAuthor(uint _index) public view isBookAuthor(_index) returns (bool) {\n    return true;\n  }\n}",
  "sourcePath": "C:\\Users\\DELL\\Blockchain\\project\\DArchive\\contracts\\Library.sol",
  "compiler": {
    "name": "solc",
    "version": "0.4.24+commit.e67f0147.Emscripten.clang"
  },
  "schemaVersion": "2.0.1",
  "updatedAt": "2018-09-27T11:36:33.568Z"
}